HDR2017070113184800000000102VGE             1.5                 
VGE11090000691808058   4447801318057                                                            447899944849                                                                                          447801318057                                                            2017010506080910                30101                                                           2    0  0                                                                                                                                                                                                                                                                                
VGE11090000691808059   4447801318057                                                            447899944849                                                                                          447801318057                                                            2017010606080915                30101                                                           2    0  0                                                                                                                                                                                                                                                                                
VGE11090000691808060   4447801318057                                                            447899944849                                                                                          447801318057                                                            2017010706080920                30101                                                           2    0  0                                                                                                                                                                                                                                                                                
VGE11090000691808061   4447801318057                                                            447899944849                                                                                          447801318057                                                            2017010806080925                30101                                                           2    0  0                                                                                                                                                                                                                                                                                
VGE11090000691808062   4447801318057                                                            447899944849                                                                                          447801318057                                                            2017010906080930                30101                                                           2    0  0                                                                                                                                                                                                                                                                                
VGE11090000691808063   4447770702033                                                            353861006286                                                                                          447770702033                                                            2017021509150110                30235                                                           2    0  0                                                                                                                                                                                                                                                                                
VGE11090000691808064   4447770702033                                                            353861006286                                                                                          447770702033                                                            2017021509200231                30235                                                           2    0  0                                                                                                                                                                                                                                                                                
VGE11090000691808065   4447770702033                                                            353861006286                                                                                          447770702033                                                            2017021509250359                30235                                                           2    0  0                                                                                                                                                                                                                                                                                
VGE11090000691808066   4447770702033                                                            353861006286                                                                                          447770702033                                                            2017021509300461                30235                                                           2    0  0                                                                                                                                                                                                                                                                                
VGE11090000691808067   4447770702033                                                            353861006286                                                                                          447770702033                                                            20170215093505220               30235                                                           2    0  0                                                                                                                                                                                                                                                                                
VGE11090000691808068   4447770702033                                                            353861006286                                                                                          447770702033                                                            20170215094006250               30235                                                           2    0  0                                                                                                                                                                                                                                                                                
VGE11090000691808069   4447770702033                                                            353861006286                                                                                          447770702033                                                            20170215094507280               30235                                                           2    0  0                                                                                                                                                                                                                                                                                
VGE11090000691808070   4447770702033                                                            353861006286                                                                                          447770702033                                                            20170215095008310               30235                                                           2    0  0                                                                                                                                                                                                                                                                                
VGE11090000691808071   4447770702033                                                            353861006286                                                                                          447770702033                                                            20170215095509340               30235                                                           2    0  0                                                                                                                                                                                                                                                                                
VGE11090000691808072   4447770702033                                                            353861006286                                                                                          447770702033                                                            20170215100010370               30235                                                           2    0  0                                                                                                                                                                                                                                                                                
VGE11090000691808073   4447770702033                                                            353861006286                                                                                          447770702033                                                            20170215100511400               30235                                                           2    0  0                                                                                                                                                                                                                                                                                
VGE11090000691808074   4447770702033                                                            353861006286                                                                                          447770702033                                                            20170215101012430               30235                                                           2    0  0                                                                                                                                                                                                                                                                                
VGE11090000691808075   4447770702033                                                            353861006286                                                                                          447770702033                                                            2017021510151350                30235                                                           2    0  0                                                                                                                                                                                                                                                                                
VGE11090000691808076   4447770702033                                                            353861006286                                                                                          447770702033                                                            2017021511151350                30235                                                           2    0  0                                                                                                                                                                                                                                                                                
VGE11090000691808077   4447770702033                                                            353861006286                                                                                          447770702033                                                            2017021512151350                30235                                                           2    0  0                                                                                                                                                                                                                                                                                
VGE11090000691808078   4447770702033                                                            353861006286                                                                                          447770702033                                                            2017021513151350                30235                                                           2    0  0                                                                                                                                                                                                                                                                                
VGE11090000691808079   4447770702033                                                            353861006286                                                                                          447770702033                                                            2017021514151350                30235                                                           2    0  0                                                                                                                                                                                                                                                                                
VGE11090000691808080   4447770702033                                                            353861006286                                                                                          447770702033                                                            2017021515151350                30235                                                           2    0  0                                                                                                                                                                                                                                                                                
VGE11090000691808081   4447770702033                                                            353861006286                                                                                          447770702033                                                            2017021516151350                30235                                                           2    0  0                                                                                                                                                                                                                                                                                
VGE11090000691808082   4447770702033                                                            353861006286                                                                                          447770702033                                                            2017021517151350                30235                                                           2    0  0                                                                                                                                                                                                                                                                                
VGE11090000691808083   4447770702033                                                            353861006286                                                                                          447770702033                                                            2017021518151350                30235                                                           2    0  0                                                                                                                                                                                                                                                                                
VGE11090000691808084   4447770702033                                                            353861006286                                                                                          447770702033                                                            2017021519151350                30235                                                           2    0  0                                                                                                                                                                                                                                                                                
VGE11090000691808085   4447770702033                                                            Incoming Call                                                                                         Incoming Call                                                           2017043023014534                30238                                                           2    0  0                                                                                                                                                                                                                                                                                
VGE11090000691808086   4447770702033                                                            Incoming Call                                                                                         Incoming Call                                                           2017043023014634                30238                                                           2    0  0                                                                                                                                                                                                                                                                                
VGE11090000691808087   4447770702033                                                            Incoming Call                                                                                         Incoming Call                                                           2017043023014734                30238                                                           2    0  0                                                                                                                                                                                                                                                                                
VGE11090000691808088   4447770702033                                                            Incoming Call                                                                                         Incoming Call                                                           2017043023014834                30238                                                           2    0  0                                                                                                                                                                                                                                                                                
VGE11090000691808089   4447770702033                                                            Incoming Call                                                                                         Incoming Call                                                           2017043023014934                30238                                                           2    0  0                                                                                                                                                                                                                                                                                
VGE11090000691808090   4447770702033                                                            Incoming Call                                                                                         Incoming Call                                                           2017043023015034                30238                                                           2    0  0                                                                                                                                                                                                                                                                                
VGE11090000691808091   4447770702033                                                            Incoming Call                                                                                         Incoming Call                                                           2017043023015134                30238                                                           2    0  0                                                                                                                                                                                                                                                                                
VGE11090000691808092   4447770702033                                                            Incoming Call                                                                                         Incoming Call                                                           2017043023015234                30238                                                           2    0  0                                                                                                                                                                                                                                                                                
VGE11090000691808093   4447770702033                                                            Incoming Call                                                                                         Incoming Call                                                           2017043023015334                30238                                                           2    0  0                                                                                                                                                                                                                                                                                
VGE11090000691808094   4447770702033                                                            Incoming Call                                                                                         Incoming Call                                                           2017043023015434                30238                                                           2    0  0                                                                                                                                                                                                                                                                                
VGE11090000691808095   4447770702033                                                            Incoming Call                                                                                         Incoming Call                                                           2017043023015534                30238                                                           2    0  0                                                                                                                                                                                                                                                                                
VGE11090000691808096   4447770702033                                                            Incoming Call                                                                                         Incoming Call                                                           2017043023015634                30238                                                           2    0  0                                                                                                                                                                                                                                                                                
VGE11090000691808097   4447770702033                                                            Incoming Call                                                                                         Incoming Call                                                           2017043023015734                30238                                                           2    0  0                                                                                                                                                                                                                                                                                
VGE11090000691808098   4447770702033                                                            Incoming Call                                                                                         Incoming Call                                                           2017043023015834                30238                                                           2    0  0                                                                                                                                                                                                                                                                                
VGE11090000691808099   4447770702033                                                            Incoming Call                                                                                         Incoming Call                                                           2017043023015934                30238                                                           2    0  0                                                                                                                                                                                                                                                                                
VGE11090000691808100   4447770702033                                                            Incoming Call                                                                                         Incoming Call                                                           2017043023020034                30238                                                           2    0  0                                                                                                                                                                                                                                                                                
VGE11090000691808101   4447770702033                                                            Incoming Call                                                                                         Incoming Call                                                           2017043023020134                30238                                                           2    0  0                                                                                                                                                                                                                                                                                
VGE11090000691808102   4447770702033                                                            Incoming Call                                                                                         Incoming Call                                                           2017043023020234                30238                                                           2    0  0                                                                                                                                                                                                                                                                                
VGE11090000691808103   4447770702033                                                            Incoming Call                                                                                         Incoming Call                                                           2017043023020334                30238                                                           2    0  0                                                                                                                                                                                                                                                                                
VGE11090000691808104   4447770702033                                                            Incoming Call                                                                                         Incoming Call                                                           2017043023020434                30238                                                           2    0  0                                                                                                                                                                                                                                                                                
VGE11090000691808105   4447584614298                                                            447713187914                                                                                          447584614298                                                            201611010542541                 30201                                                           2    0  0                                                                                                                                                                                                                                                                                
VGE11090000691808106   4447584614298                                                            447713187914                                                                                          447584614298                                                            201611010645231                 30201                                                           2    0  0                                                                                                                                                                                                                                                                                
VGE11090000691808107   4447584614298                                                            447713187914                                                                                          447584614298                                                            201611010747521                 30201                                                           2    0  0                                                                                                                                                                                                                                                                                
VGE11090000691808108   4447584614298                                                            447713187914                                                                                          447584614298                                                            201611010850211                 30201                                                           2    0  0                                                                                                                                                                                                                                                                                
VGE11090000691808109   4447584614298                                                            447713187914                                                                                          447584614298                                                            201611010952501                 30201                                                           2    0  0                                                                                                                                                                                                                                                                                
VGE11090000691808110   4447834534739                                                            31620272611                                                                                           447834534739                                                            201611011055191                 30203                                                           2    0  0                                                                                                                                                                                                                                                                                
VGE11090000691808111   4447834534739                                                            31620272611                                                                                           447834534739                                                            201611011056191                 30203                                                           2    0  0                                                                                                                                                                                                                                                                                
VGE11090000691808112   4447834534739                                                            31620272611                                                                                           447834534739                                                            201611011057191                 30203                                                           2    0  0                                                                                                                                                                                                                                                                                
VGE11090000691808113   4447834534739                                                            31620272611                                                                                           447834534739                                                            201611011058191                 30203                                                           2    0  0                                                                                                                                                                                                                                                                                
VGE11090000691808114   4447834534739                                                            31620272611                                                                                           447834534739                                                            201611011059191                 30203                                                           2    0  0                                                                                                                                                                                                                                                                                
VGE11090000691808115   4447834534739                                                            31620272611                                                                                           447834534739                                                            201611011100191                 30203                                                           2    0  0                                                                                                                                                                                                                                                                                
VGE11090000691808116   4447834534739                                                            31620272611                                                                                           447834534739                                                            201611011101191                 30203                                                           2    0  0                                                                                                                                                                                                                                                                                
VGE11090000691808117   4447834534739                                                            31620272611                                                                                           447834534739                                                            201611011102191                 30203                                                           2    0  0                                                                                                                                                                                                                                                                                
VGE11090000691808118   4447834534739                                                            31620272611                                                                                           447834534739                                                            201611011103191                 30203                                                           2    0  0                                                                                                                                                                                                                                                                                
VGE11090000691808119   4447834534739                                                            31620272611                                                                                           447834534739                                                            201611011104191                 30203                                                           2    0  0                                                                                                                                                                                                                                                                                
VGE11090000691808120   4447834534739                                                            31620272611                                                                                           447834534739                                                            201611011105191                 30203                                                           2    0  0                                                                                                                                                                                                                                                                                
VGE11090000691808121   4447834534739                                                            31620272611                                                                                           447834534739                                                            201611011106191                 30203                                                           2    0  0                                                                                                                                                                                                                                                                                
VGE11090000691808122   4447834534739                                                            31620272611                                                                                           447834534739                                                            201611011107191                 30203                                                           2    0  0                                                                                                                                                                                                                                                                                
VGE11090000691808123   4447834534739                                                            31620272611                                                                                           447834534739                                                            201611011108191                 30203                                                           2    0  0                                                                                                                                                                                                                                                                                
VGE11090000691808124   4447834534739                                                            31620272611                                                                                           447834534739                                                            201611011109191                 30203                                                           2    0  0                                                                                                                                                                                                                                                                                
VGE11090000691808125   4447834534739                                                            31620272611                                                                                           447834534739                                                            201611011110191                 30203                                                           2    0  0                                                                                                                                                                                                                                                                                
VGE11090000691808126   4447834534739                                                            31620272611                                                                                           447834534739                                                            201611011111191                 30203                                                           2    0  0                                                                                                                                                                                                                                                                                
VGE11090000691808127   4447834534739                                                            31620272611                                                                                           447834534739                                                            201611011112191                 30203                                                           2    0  0                                                                                                                                                                                                                                                                                
VGE11090000691808128   4447834534739                                                            31620272611                                                                                           447834534739                                                            201611011113191                 30203                                                           2    0  0                                                                                                                                                                                                                                                                                
VGE11090000691808129   4447834534739                                                            31620272611                                                                                           447834534739                                                            201611011114191                 30203                                                           2    0  0                                                                                                                                                                                                                                                                                
VGE11090000691808130   4447834534739                                                            31620272611                                                                                           447834534739                                                            201611011115191                 30203                                                           2    0  0                                                                                                                                                                                                                                                                                
VGE11090000691808131   4447834534739                                                            31620272611                                                                                           447834534739                                                            201611011116191                 30203                                                           2    0  0                                                                                                                                                                                                                                                                                
VGE11090000691808132   4447834534739                                                            31620272611                                                                                           447834534739                                                            201611011117191                 30203                                                           2    0  0                                                                                                                                                                                                                                                                                
VGE11090000691808133   4447834534739                                                            31620272611                                                                                           447834534739                                                            201611011118191                 30203                                                           2    0  0                                                                                                                                                                                                                                                                                
VGE11090000691808134   4447834534739                                                            31620272611                                                                                           447834534739                                                            201611011119191                 30203                                                           2    0  0                                                                                                                                                                                                                                                                                
VGE11090000691808135   4447834534739                                                            31620272611                                                                                           447834534739                                                            201611011120191                 30203                                                           2    0  0                                                                                                                                                                                                                                                                                
VGE11090000691808136   4447834534739                                                            31620272611                                                                                           447834534739                                                            201611011121191                 30203                                                           2    0  0                                                                                                                                                                                                                                                                                
VGE11090000691808137   4447834534739                                                            31620272611                                                                                           447834534739                                                            201611011122191                 30203                                                           2    0  0                                                                                                                                                                                                                                                                                
VGE11090000691808138   4447834534739                                                            31620272611                                                                                           447834534739                                                            201611011123191                 30203                                                           2    0  0                                                                                                                                                                                                                                                                                
VGE11090000691808139   4447834534739                                                            31620272611                                                                                           447834534739                                                            201611011124191                 30203                                                           2    0  0                                                                                                                                                                                                                                                                                
VGE11090000691808140   4447834534739                                                            31620272611                                                                                           447834534739                                                            201611011125191                 30203                                                           2    0  0                                                                                                                                                                                                                                                                                
VGE11090000691808141   4447834534739                                                            31620272611                                                                                           447834534739                                                            201611011126191                 30203                                                           2    0  0                                                                                                                                                                                                                                                                                
VGE11090000691808142   4447834534739                                                            31620272611                                                                                           447834534739                                                            201611011127191                 30203                                                           2    0  0                                                                                                                                                                                                                                                                                
VGE11090000691808143   4447834534739                                                            31620272611                                                                                           447834534739                                                            201611011128191                 30203                                                           2    0  0                                                                                                                                                                                                                                                                                
VGE11090000691808144   4447834534739                                                            31620272611                                                                                           447834534739                                                            201611011129191                 30203                                                           2    0  0                                                                                                                                                                                                                                                                                
VGE11090000691808145   4447834534739                                                            31620272611                                                                                           447834534739                                                            201611011130191                 30203                                                           2    0  0                                                                                                                                                                                                                                                                                
VGE11090000691808146   4447834534739                                                            31620272611                                                                                           447834534739                                                            201611011131191                 30203                                                           2    0  0                                                                                                                                                                                                                                                                                
VGE11090000691808147   4447834534739                                                            31620272611                                                                                           447834534739                                                            201611011132191                 30203                                                           2    0  0                                                                                                                                                                                                                                                                                
VGE11090000691808148   4447834534739                                                            31620272611                                                                                           447834534739                                                            201611011133191                 30203                                                           2    0  0                                                                                                                                                                                                                                                                                
VGE11090000691808149   4447834534739                                                            31620272611                                                                                           447834534739                                                            201611011134191                 30203                                                           2    0  0                                                                                                                                                                                                                                                                                
VGE11090000691808150   4447834534739                                                            31620272611                                                                                           447834534739                                                            201611011135191                 30203                                                           2    0  0                                                                                                                                                                                                                                                                                
VGE11090000691808151   4447834534739                                                            31620272611                                                                                           447834534739                                                            201611011136191                 30203                                                           2    0  0                                                                                                                                                                                                                                                                                
VGE11090000691808152   4447834534739                                                            31620272611                                                                                           447834534739                                                            201611011137191                 30203                                                           2    0  0                                                                                                                                                                                                                                                                                
VGE11090000691808153   4447834534739                                                            31620272611                                                                                           447834534739                                                            201611011138191                 30203                                                           2    0  0                                                                                                                                                                                                                                                                                
VGE11090000691808154   4447834534739                                                            31620272611                                                                                           447834534739                                                            201611011139191                 30203                                                           2    0  0                                                                                                                                                                                                                                                                                
VGE11090000691808155   4447834534739                                                            31620272611                                                                                           447834534739                                                            201611011140191                 30203                                                           2    0  0                                                                                                                                                                                                                                                                                
VGE11090000691808156   4447834534739                                                            31620272611                                                                                           447834534739                                                            201611011141191                 30203                                                           2    0  0                                                                                                                                                                                                                                                                                
VGE11090000691808157   4447834534739                                                            31620272611                                                                                           447834534739                                                            201611011142191                 30203                                                           2    0  0                                                                                                                                                                                                                                                                                
VGE11090000691808158   4447834534739                                                            31620272611                                                                                           447834534739                                                            201611011143191                 30203                                                           2    0  0                                                                                                                                                                                                                                                                                
VGE11090000691808159   4447834534739                                                            31620272611                                                                                           447834534739                                                            201611011144191                 30203                                                           2    0  0                                                                                                                                                                                                                                                                                
TRA2017070113184800000000102VGE             1.5                 
